{
  "contractName": "Lottery",
  "abi": [
    {
      "inputs": [
        {
          "internalType": "address",
          "name": "_kitCoinAddr",
          "type": "address"
        },
        {
          "internalType": "uint256",
          "name": "_ticketPrice",
          "type": "uint256"
        }
      ],
      "stateMutability": "nonpayable",
      "type": "constructor"
    },
    {
      "anonymous": false,
      "inputs": [
        {
          "indexed": true,
          "internalType": "address",
          "name": "previousOwner",
          "type": "address"
        },
        {
          "indexed": true,
          "internalType": "address",
          "name": "newOwner",
          "type": "address"
        }
      ],
      "name": "OwnershipTransferred",
      "type": "event"
    },
    {
      "inputs": [],
      "name": "lotteryId",
      "outputs": [
        {
          "internalType": "uint256",
          "name": "",
          "type": "uint256"
        }
      ],
      "stateMutability": "view",
      "type": "function"
    },
    {
      "inputs": [],
      "name": "lottery_state",
      "outputs": [
        {
          "internalType": "enum Lottery.LOTTERY_STATE",
          "name": "",
          "type": "uint8"
        }
      ],
      "stateMutability": "view",
      "type": "function"
    },
    {
      "inputs": [
        {
          "internalType": "uint256",
          "name": "",
          "type": "uint256"
        }
      ],
      "name": "mapLotteryIdToRandomNumber",
      "outputs": [
        {
          "internalType": "uint256",
          "name": "",
          "type": "uint256"
        }
      ],
      "stateMutability": "view",
      "type": "function"
    },
    {
      "inputs": [
        {
          "internalType": "uint256",
          "name": "",
          "type": "uint256"
        }
      ],
      "name": "mapLotteryIdToWinningAddress",
      "outputs": [
        {
          "internalType": "address",
          "name": "",
          "type": "address"
        }
      ],
      "stateMutability": "view",
      "type": "function"
    },
    {
      "inputs": [],
      "name": "owner",
      "outputs": [
        {
          "internalType": "address",
          "name": "",
          "type": "address"
        }
      ],
      "stateMutability": "view",
      "type": "function"
    },
    {
      "inputs": [
        {
          "internalType": "uint256",
          "name": "",
          "type": "uint256"
        }
      ],
      "name": "players",
      "outputs": [
        {
          "internalType": "address",
          "name": "",
          "type": "address"
        }
      ],
      "stateMutability": "view",
      "type": "function"
    },
    {
      "inputs": [
        {
          "internalType": "bytes32",
          "name": "requestId",
          "type": "bytes32"
        },
        {
          "internalType": "uint256",
          "name": "randomness",
          "type": "uint256"
        }
      ],
      "name": "rawFulfillRandomness",
      "outputs": [],
      "stateMutability": "nonpayable",
      "type": "function"
    },
    {
      "inputs": [],
      "name": "renounceOwnership",
      "outputs": [],
      "stateMutability": "nonpayable",
      "type": "function"
    },
    {
      "inputs": [],
      "name": "ticketPrice",
      "outputs": [
        {
          "internalType": "uint256",
          "name": "",
          "type": "uint256"
        }
      ],
      "stateMutability": "view",
      "type": "function"
    },
    {
      "inputs": [
        {
          "internalType": "address",
          "name": "newOwner",
          "type": "address"
        }
      ],
      "name": "transferOwnership",
      "outputs": [],
      "stateMutability": "nonpayable",
      "type": "function"
    },
    {
      "inputs": [
        {
          "internalType": "uint256",
          "name": "_lotteryId",
          "type": "uint256"
        },
        {
          "internalType": "address",
          "name": "addr",
          "type": "address"
        }
      ],
      "name": "getNumberOfBuyTicket",
      "outputs": [
        {
          "internalType": "uint256",
          "name": "count",
          "type": "uint256"
        }
      ],
      "stateMutability": "view",
      "type": "function"
    },
    {
      "inputs": [],
      "name": "startNewLottery",
      "outputs": [],
      "stateMutability": "nonpayable",
      "type": "function"
    },
    {
      "inputs": [],
      "name": "enter",
      "outputs": [],
      "stateMutability": "nonpayable",
      "type": "function"
    },
    {
      "inputs": [],
      "name": "pickWinner",
      "outputs": [],
      "stateMutability": "nonpayable",
      "type": "function"
    }
  ],
  "bytecode": "0x60c060405234801561001057600080fd5b50604051611b5a380380611b5a8339818101604052604081101561003357600080fd5b810190808051906020019092919080519060200190929190505050738c7382f9d8f56b33781fe506e897a4f1e2d1725573326c977e6efc84e512bb9c30f76e30c160ed06fb8173ffffffffffffffffffffffffffffffffffffffff1660a08173ffffffffffffffffffffffffffffffffffffffff1660601b815250508073ffffffffffffffffffffffffffffffffffffffff1660808173ffffffffffffffffffffffffffffffffffffffff1660601b81525050505060006100f861024860201b60201c565b905080600160006101000a81548173ffffffffffffffffffffffffffffffffffffffff021916908373ffffffffffffffffffffffffffffffffffffffff1602179055508073ffffffffffffffffffffffffffffffffffffffff16600073ffffffffffffffffffffffffffffffffffffffff167f8be0079c531659141344cd1fd0a4f28419497f9722a3daafe3b4186f6b6457e060405160405180910390a350600160038190555060018060146101000a81548160ff021916908360028111156101bd57fe5b021790555081600460006101000a81548173ffffffffffffffffffffffffffffffffffffffff021916908373ffffffffffffffffffffffffffffffffffffffff160217905550806005819055507f6e75b569a01ef56d18cab6a8e71e6600d6ce853834d4a5748b720d06f878b3a460001b600681905550655af3107a40006007819055505050610250565b600033905090565b60805160601c60a05160601c6118d76102836000398061093652806110a95250806105c2528061106d52506118d76000f3fe608060405234801561001057600080fd5b50600436106100ea5760003560e01c80638da5cb5b1161008c578063e580f47b11610066578063e580f47b146102bc578063e97dcb62146102da578063f2fde38b146102e4578063f71d96cb14610328576100ea565b80638da5cb5b146101f857806394985ddd1461022c578063b4a3aba114610264576100ea565b80635d495aea116100c85780635d495aea14610159578063715018a6146101635780637517288c1461016d57806381447999146101cf576100ea565b80631209b1f6146100ef578063378dccc31461010d5780635727cb591461014f575b600080fd5b6100f7610380565b6040518082815260200191505060405180910390f35b6101396004803603602081101561012357600080fd5b8101908080359060200190929190505050610386565b6040518082815260200191505060405180910390f35b61015761039e565b005b61016161050e565b005b61016b61072c565b005b6101b96004803603604081101561018357600080fd5b8101908080359060200190929190803573ffffffffffffffffffffffffffffffffffffffff16906020019092919050505061089c565b6040518082815260200191505060405180910390f35b6101d76108f7565b604051808260028111156101e757fe5b815260200191505060405180910390f35b61020061090a565b604051808273ffffffffffffffffffffffffffffffffffffffff16815260200191505060405180910390f35b6102626004803603604081101561024257600080fd5b810190808035906020019092919080359060200190929190505050610934565b005b6102906004803603602081101561027a57600080fd5b8101908080359060200190929190505050610a03565b604051808273ffffffffffffffffffffffffffffffffffffffff16815260200191505060405180910390f35b6102c4610a36565b6040518082815260200191505060405180910390f35b6102e2610a3c565b005b610326600480360360208110156102fa57600080fd5b81019080803573ffffffffffffffffffffffffffffffffffffffff169060200190929190505050610e30565b005b6103546004803603602081101561033e57600080fd5b8101908080359060200190929190505050611025565b604051808273ffffffffffffffffffffffffffffffffffffffff16815260200191505060405180910390f35b60055481565b600a6020528060005260406000206000915090505481565b6103a6611061565b73ffffffffffffffffffffffffffffffffffffffff166103c461090a565b73ffffffffffffffffffffffffffffffffffffffff161461044d576040517f08c379a00000000000000000000000000000000000000000000000000000000081526004018080602001828103825260208152602001807f4f776e61626c653a2063616c6c6572206973206e6f7420746865206f776e657281525060200191505060405180910390fd5b6001600281111561045a57fe5b600160149054906101000a900460ff16600281111561047557fe5b146104e8576040517f08c379a000000000000000000000000000000000000000000000000000000000815260040180806020018281038252601d8152602001807f63616e27742073746172742061206e6577206c6f74746572792079657400000081525060200191505060405180910390fd5b6000600160146101000a81548160ff0219169083600281111561050757fe5b0217905550565b610516611061565b73ffffffffffffffffffffffffffffffffffffffff1661053461090a565b73ffffffffffffffffffffffffffffffffffffffff16146105bd576040517f08c379a00000000000000000000000000000000000000000000000000000000081526004018080602001828103825260208152602001807f4f776e61626c653a2063616c6c6572206973206e6f7420746865206f776e657281525060200191505060405180910390fd5b6007547f000000000000000000000000000000000000000000000000000000000000000073ffffffffffffffffffffffffffffffffffffffff166370a08231306040518263ffffffff1660e01b8152600401808273ffffffffffffffffffffffffffffffffffffffff16815260200191505060206040518083038186803b15801561064757600080fd5b505afa15801561065b573d6000803e3d6000fd5b505050506040513d602081101561067157600080fd5b810190808051906020019092919050505010156106d9576040517f08c379a000000000000000000000000000000000000000000000000000000000815260040180806020018281038252602b815260200180611877602b913960400191505060405180910390fd5b6002600160146101000a81548160ff021916908360028111156106f857fe5b0217905550600061070d600654600754611069565b9050600354600860008381526020019081526020016000208190555050565b610734611061565b73ffffffffffffffffffffffffffffffffffffffff1661075261090a565b73ffffffffffffffffffffffffffffffffffffffff16146107db576040517f08c379a00000000000000000000000000000000000000000000000000000000081526004018080602001828103825260208152602001807f4f776e61626c653a2063616c6c6572206973206e6f7420746865206f776e657281525060200191505060405180910390fd5b600073ffffffffffffffffffffffffffffffffffffffff16600160009054906101000a900473ffffffffffffffffffffffffffffffffffffffff1673ffffffffffffffffffffffffffffffffffffffff167f8be0079c531659141344cd1fd0a4f28419497f9722a3daafe3b4186f6b6457e060405160405180910390a36000600160006101000a81548173ffffffffffffffffffffffffffffffffffffffff021916908373ffffffffffffffffffffffffffffffffffffffff160217905550565b6000600b600084815260200190815260200160002060008373ffffffffffffffffffffffffffffffffffffffff1673ffffffffffffffffffffffffffffffffffffffff16815260200190815260200160002054905092915050565b600160149054906101000a900460ff1681565b6000600160009054906101000a900473ffffffffffffffffffffffffffffffffffffffff16905090565b7f000000000000000000000000000000000000000000000000000000000000000073ffffffffffffffffffffffffffffffffffffffff163373ffffffffffffffffffffffffffffffffffffffff16146109f5576040517f08c379a000000000000000000000000000000000000000000000000000000000815260040180806020018281038252601f8152602001807f4f6e6c7920565246436f6f7264696e61746f722063616e2066756c66696c6c0081525060200191505060405180910390fd5b6109ff828261125f565b5050565b60096020528060005260406000206000915054906101000a900473ffffffffffffffffffffffffffffffffffffffff1681565b60035481565b60006002811115610a4957fe5b600160149054906101000a900460ff166002811115610a6457fe5b14610ad7576040517f08c379a00000000000000000000000000000000000000000000000000000000081526004018080602001828103825260168152602001807f6c6f7474657279207374617465206e6f74206f70656e0000000000000000000081525060200191505060405180910390fd5b600554600460009054906101000a900473ffffffffffffffffffffffffffffffffffffffff1673ffffffffffffffffffffffffffffffffffffffff1663dd62ed3e33306040518363ffffffff1660e01b8152600401808373ffffffffffffffffffffffffffffffffffffffff1681526020018273ffffffffffffffffffffffffffffffffffffffff1681526020019250505060206040518083038186803b158015610b8157600080fd5b505afa158015610b95573d6000803e3d6000fd5b505050506040513d6020811015610bab57600080fd5b81019080805190602001909291905050501015610c30576040517f08c379a00000000000000000000000000000000000000000000000000000000081526004018080602001828103825260148152602001807f6e6f7420616c6c6f77616365206b6974636f696e00000000000000000000000081525060200191505060405180910390fd5b600460009054906101000a900473ffffffffffffffffffffffffffffffffffffffff1673ffffffffffffffffffffffffffffffffffffffff166323b872dd33306005546040518463ffffffff1660e01b8152600401808473ffffffffffffffffffffffffffffffffffffffff1681526020018373ffffffffffffffffffffffffffffffffffffffff1681526020018281526020019350505050602060405180830381600087803b158015610ce357600080fd5b505af1158015610cf7573d6000803e3d6000fd5b505050506040513d6020811015610d0d57600080fd5b8101908080519060200190929190505050506002339080600181540180825580915050600190039060005260206000200160009091909190916101000a81548173ffffffffffffffffffffffffffffffffffffffff021916908373ffffffffffffffffffffffffffffffffffffffff1602179055506001600b6000600354815260200190815260200160002060003373ffffffffffffffffffffffffffffffffffffffff1673ffffffffffffffffffffffffffffffffffffffff1681526020019081526020016000205401600b6000600354815260200190815260200160002060003373ffffffffffffffffffffffffffffffffffffffff1673ffffffffffffffffffffffffffffffffffffffff16815260200190815260200160002081905550565b610e38611061565b73ffffffffffffffffffffffffffffffffffffffff16610e5661090a565b73ffffffffffffffffffffffffffffffffffffffff1614610edf576040517f08c379a00000000000000000000000000000000000000000000000000000000081526004018080602001828103825260208152602001807f4f776e61626c653a2063616c6c6572206973206e6f7420746865206f776e657281525060200191505060405180910390fd5b600073ffffffffffffffffffffffffffffffffffffffff168173ffffffffffffffffffffffffffffffffffffffff161415610f65576040517f08c379a00000000000000000000000000000000000000000000000000000000081526004018080602001828103825260268152602001806118516026913960400191505060405180910390fd5b8073ffffffffffffffffffffffffffffffffffffffff16600160009054906101000a900473ffffffffffffffffffffffffffffffffffffffff1673ffffffffffffffffffffffffffffffffffffffff167f8be0079c531659141344cd1fd0a4f28419497f9722a3daafe3b4186f6b6457e060405160405180910390a380600160006101000a81548173ffffffffffffffffffffffffffffffffffffffff021916908373ffffffffffffffffffffffffffffffffffffffff16021790555050565b6002818154811061103257fe5b906000526020600020016000915054906101000a900473ffffffffffffffffffffffffffffffffffffffff1681565b600033905090565b60007f000000000000000000000000000000000000000000000000000000000000000073ffffffffffffffffffffffffffffffffffffffff16634000aea07f00000000000000000000000000000000000000000000000000000000000000008486600060405160200180838152602001828152602001925050506040516020818303038152906040526040518463ffffffff1660e01b8152600401808473ffffffffffffffffffffffffffffffffffffffff16815260200183815260200180602001828103825283818151815260200191508051906020019080838360005b83811015611163578082015181840152602081019050611148565b50505050905090810190601f1680156111905780820380516001836020036101000a031916815260200191505b50945050505050602060405180830381600087803b1580156111b157600080fd5b505af11580156111c5573d6000803e3d6000fd5b505050506040513d60208110156111db57600080fd5b810190808051906020019092919050505050600061120e8460003060008089815260200190815260200160002054611666565b90506112366001600080878152602001908152602001600020546116ca90919063ffffffff16565b600080868152602001908152602001600020819055506112568482611752565b91505092915050565b60028081111561126b57fe5b600160149054906101000a900460ff16600281111561128657fe5b146112f9576040517f08c379a000000000000000000000000000000000000000000000000000000000815260040180806020018281038252601d8152602001807f596f75206172656e27742061742074686174207374616765207965742100000081525060200191505060405180910390fd5b6000811161136f576040517f08c379a00000000000000000000000000000000000000000000000000000000081526004018080602001828103825260108152602001807f72616e646f6d2d6e6f742d666f756e640000000000000000000000000000000081525060200191505060405180910390fd5b6000600860008481526020019081526020016000205490506000600280549050838161139757fe5b06905082600a6000848152602001908152602001600020819055506000600282815481106113c157fe5b9060005260206000200160009054906101000a900473ffffffffffffffffffffffffffffffffffffffff169050600460009054906101000a900473ffffffffffffffffffffffffffffffffffffffff1673ffffffffffffffffffffffffffffffffffffffff1663a9059cbb82600460009054906101000a900473ffffffffffffffffffffffffffffffffffffffff1673ffffffffffffffffffffffffffffffffffffffff166370a08231306040518263ffffffff1660e01b8152600401808273ffffffffffffffffffffffffffffffffffffffff16815260200191505060206040518083038186803b1580156114b657600080fd5b505afa1580156114ca573d6000803e3d6000fd5b505050506040513d60208110156114e057600080fd5b81019080805190602001909291905050506040518363ffffffff1660e01b8152600401808373ffffffffffffffffffffffffffffffffffffffff16815260200182815260200192505050602060405180830381600087803b15801561154457600080fd5b505af1158015611558573d6000803e3d6000fd5b505050506040513d602081101561156e57600080fd5b810190808051906020019092919050505050806009600085815260200190815260200160002060006101000a81548173ffffffffffffffffffffffffffffffffffffffff021916908373ffffffffffffffffffffffffffffffffffffffff160217905550600067ffffffffffffffff811180156115ea57600080fd5b506040519080825280602002602001820160405280156116195781602001602082028036833780820191505090505b506002908051906020019061162f92919061178b565b5060018060146101000a81548160ff0219169083600281111561164e57fe5b02179055506001600354016003819055505050505050565b600084848484604051602001808581526020018481526020018373ffffffffffffffffffffffffffffffffffffffff1681526020018281526020019450505050506040516020818303038152906040528051906020012060001c9050949350505050565b600080828401905083811015611748576040517f08c379a000000000000000000000000000000000000000000000000000000000815260040180806020018281038252601b8152602001807f536166654d6174683a206164646974696f6e206f766572666c6f77000000000081525060200191505060405180910390fd5b8091505092915050565b60008282604051602001808381526020018281526020019250505060405160208183030381529060405280519060200120905092915050565b828054828255906000526020600020908101928215611804579160200282015b828111156118035782518260006101000a81548173ffffffffffffffffffffffffffffffffffffffff021916908373ffffffffffffffffffffffffffffffffffffffff160217905550916020019190600101906117ab565b5b5090506118119190611815565b5090565b5b8082111561184c57600081816101000a81549073ffffffffffffffffffffffffffffffffffffffff021916905550600101611816565b509056fe4f776e61626c653a206e6577206f776e657220697320746865207a65726f20616464726573734e6f7420656e6f756768204c494e4b202d2066696c6c20636f6e7472616374207769746820666175636574a26469706673582212208de648de33442f6f1d6bc0ea420187acfa7e368f7a469193823cc417532b013b64736f6c634300060c0033",
  "immutableReferences": {
    "77": [
      {
        "length": 32,
        "start": 1474
      },
      {
        "length": 32,
        "start": 4205
      }
    ],
    "79": [
      {
        "length": 32,
        "start": 2358
      },
      {
        "length": 32,
        "start": 4265
      }
    ]
  },
  "source": "// SPDX-License-Identifier: MIT\r\npragma solidity 0.6.12;\r\n\r\nimport \"@openzeppelin/contracts/access/Ownable.sol\";\r\nimport \"@openzeppelin/contracts/token/ERC20/IERC20.sol\";\r\nimport \"@chainlink/contracts/src/v0.6/VRFConsumerBase.sol\";\r\n\r\ncontract Lottery is VRFConsumerBase, Ownable {\r\n    enum LOTTERY_STATE {\r\n        OPEN,\r\n        CLOSED,\r\n        CALCULATING_WINNER\r\n    }\r\n    LOTTERY_STATE public lottery_state;\r\n    address[] public players;\r\n    uint256 public lotteryId;\r\n    IERC20 internal iKitcoin;\r\n\r\n    uint256 public ticketPrice;\r\n\r\n    bytes32 internal keyHash;\r\n    uint256 internal fee;\r\n\r\n    mapping(bytes32 => uint256) internal mapRequestIdToLotteryId;\r\n    mapping(uint256 => address) public mapLotteryIdToWinningAddress;\r\n    mapping(uint256 => uint256) public mapLotteryIdToRandomNumber;\r\n    mapping(uint256 => mapping(address => uint256))\r\n        internal roundAddressCountTicket;\r\n\r\n    constructor(address _kitCoinAddr, uint256 _ticketPrice)\r\n        public\r\n        VRFConsumerBase(\r\n            0x8C7382F9D8f56b33781fE506E897a4F1e2d17255, // VRF Coordinator\r\n            0x326C977E6efc84E512bB9C30f76E30c160eD06FB // LINK Token\r\n        )\r\n    {\r\n        lotteryId = 1;\r\n        lottery_state = LOTTERY_STATE.CLOSED;\r\n        iKitcoin = IERC20(_kitCoinAddr);\r\n        ticketPrice = _ticketPrice;\r\n\r\n        keyHash = 0x6e75b569a01ef56d18cab6a8e71e6600d6ce853834d4a5748b720d06f878b3a4;\r\n        fee = 0.0001 * 10**18; // 0.1 LINK (Varies by network)\r\n    }\r\n\r\n    function getNumberOfBuyTicket(uint256 _lotteryId, address addr)\r\n        public\r\n        view\r\n        returns (uint256 count)\r\n    {\r\n        return roundAddressCountTicket[_lotteryId][addr];\r\n    }\r\n\r\n    function startNewLottery() public onlyOwner {\r\n        require(\r\n            lottery_state == LOTTERY_STATE.CLOSED,\r\n            \"can't start a new lottery yet\"\r\n        );\r\n        lottery_state = LOTTERY_STATE.OPEN;\r\n    }\r\n\r\n    function enter() public {\r\n        require(lottery_state == LOTTERY_STATE.OPEN, \"lottery state not open\");\r\n        require(\r\n            iKitcoin.allowance(msg.sender, address(this)) >= ticketPrice,\r\n            \"not allowace kitcoin\"\r\n        );\r\n\r\n        iKitcoin.transferFrom(msg.sender, address(this), ticketPrice);\r\n        players.push(msg.sender);\r\n\r\n        roundAddressCountTicket[lotteryId][msg.sender] =\r\n            roundAddressCountTicket[lotteryId][msg.sender] +\r\n            1;\r\n    }\r\n\r\n    /**\r\n     * Requests randomness\r\n     */\r\n    function pickWinner() public onlyOwner {\r\n        require(\r\n            LINK.balanceOf(address(this)) >= fee,\r\n            \"Not enough LINK - fill contract with faucet\"\r\n        );\r\n        lottery_state = LOTTERY_STATE.CALCULATING_WINNER;\r\n        bytes32 requestId = requestRandomness(keyHash, fee);\r\n        mapRequestIdToLotteryId[requestId] = lotteryId;\r\n    }\r\n\r\n    /**\r\n     * Callback function used by VRF Coordinator\r\n     */\r\n    function fulfillRandomness(bytes32 requestId, uint256 randomness)\r\n        internal\r\n        override\r\n    {\r\n        require(\r\n            lottery_state == LOTTERY_STATE.CALCULATING_WINNER,\r\n            \"You aren't at that stage yet!\"\r\n        );\r\n        require(randomness > 0, \"random-not-found\");\r\n        uint256 lid = mapRequestIdToLotteryId[requestId];\r\n\r\n        uint256 index = randomness % players.length;\r\n\r\n        mapLotteryIdToRandomNumber[lid] = randomness;\r\n        address winningAddr = players[index];\r\n        iKitcoin.transfer(winningAddr, iKitcoin.balanceOf(address(this)));\r\n        mapLotteryIdToWinningAddress[lid] = winningAddr;\r\n        players = new address[](0);\r\n\r\n        lottery_state = LOTTERY_STATE.CLOSED;\r\n        lotteryId = lotteryId + 1;\r\n    }\r\n}\r\n",
  "sourcePath": "C:\\Users\\kitchittawanij\\workspace\\ks-lottery-contract\\contracts\\Lottery.sol",
  "compiler": {
    "name": "solc",
    "version": "0.6.12+commit.27d51765.Emscripten.clang"
  },
  "schemaVersion": "3.4.3",
  "updatedAt": "2021-09-05T17:53:39.511Z",
  "devdoc": {
    "kind": "dev",
    "methods": {
      "owner()": {
        "details": "Returns the address of the current owner."
      },
      "renounceOwnership()": {
        "details": "Leaves the contract without owner. It will not be possible to call `onlyOwner` functions anymore. Can only be called by the current owner. NOTE: Renouncing ownership will leave the contract without an owner, thereby removing any functionality that is only available to the owner."
      },
      "transferOwnership(address)": {
        "details": "Transfers ownership of the contract to a new account (`newOwner`). Can only be called by the current owner."
      }
    },
    "version": 1
  },
  "userdoc": {
    "kind": "user",
    "methods": {
      "pickWinner()": {
        "notice": "Requests randomness"
      }
    },
    "version": 1
  }
}