{
  "contractName": "Lottery",
  "abi": [
    {
      "inputs": [
        {
          "internalType": "address",
          "name": "_kitCoinAddr",
          "type": "address"
        },
        {
          "internalType": "uint256",
          "name": "_ticketPrice",
          "type": "uint256"
        }
      ],
      "stateMutability": "nonpayable",
      "type": "constructor"
    },
    {
      "anonymous": false,
      "inputs": [
        {
          "indexed": true,
          "internalType": "address",
          "name": "previousOwner",
          "type": "address"
        },
        {
          "indexed": true,
          "internalType": "address",
          "name": "newOwner",
          "type": "address"
        }
      ],
      "name": "OwnershipTransferred",
      "type": "event"
    },
    {
      "inputs": [],
      "name": "lotteryId",
      "outputs": [
        {
          "internalType": "uint256",
          "name": "",
          "type": "uint256"
        }
      ],
      "stateMutability": "view",
      "type": "function",
      "constant": true
    },
    {
      "inputs": [],
      "name": "lottery_state",
      "outputs": [
        {
          "internalType": "enum Lottery.LOTTERY_STATE",
          "name": "",
          "type": "uint8"
        }
      ],
      "stateMutability": "view",
      "type": "function",
      "constant": true
    },
    {
      "inputs": [
        {
          "internalType": "uint256",
          "name": "",
          "type": "uint256"
        }
      ],
      "name": "mapLotteryIdToRandomNumber",
      "outputs": [
        {
          "internalType": "uint256",
          "name": "",
          "type": "uint256"
        }
      ],
      "stateMutability": "view",
      "type": "function",
      "constant": true
    },
    {
      "inputs": [
        {
          "internalType": "uint256",
          "name": "",
          "type": "uint256"
        }
      ],
      "name": "mapLotteryIdToWinningAddress",
      "outputs": [
        {
          "internalType": "address",
          "name": "",
          "type": "address"
        }
      ],
      "stateMutability": "view",
      "type": "function",
      "constant": true
    },
    {
      "inputs": [],
      "name": "owner",
      "outputs": [
        {
          "internalType": "address",
          "name": "",
          "type": "address"
        }
      ],
      "stateMutability": "view",
      "type": "function",
      "constant": true
    },
    {
      "inputs": [
        {
          "internalType": "uint256",
          "name": "",
          "type": "uint256"
        }
      ],
      "name": "players",
      "outputs": [
        {
          "internalType": "address",
          "name": "",
          "type": "address"
        }
      ],
      "stateMutability": "view",
      "type": "function",
      "constant": true
    },
    {
      "inputs": [
        {
          "internalType": "bytes32",
          "name": "requestId",
          "type": "bytes32"
        },
        {
          "internalType": "uint256",
          "name": "randomness",
          "type": "uint256"
        }
      ],
      "name": "rawFulfillRandomness",
      "outputs": [],
      "stateMutability": "nonpayable",
      "type": "function"
    },
    {
      "inputs": [],
      "name": "renounceOwnership",
      "outputs": [],
      "stateMutability": "nonpayable",
      "type": "function"
    },
    {
      "inputs": [],
      "name": "ticketPrice",
      "outputs": [
        {
          "internalType": "uint256",
          "name": "",
          "type": "uint256"
        }
      ],
      "stateMutability": "view",
      "type": "function",
      "constant": true
    },
    {
      "inputs": [
        {
          "internalType": "address",
          "name": "newOwner",
          "type": "address"
        }
      ],
      "name": "transferOwnership",
      "outputs": [],
      "stateMutability": "nonpayable",
      "type": "function"
    },
    {
      "inputs": [],
      "name": "start_new_lottery",
      "outputs": [],
      "stateMutability": "nonpayable",
      "type": "function"
    },
    {
      "inputs": [],
      "name": "enter",
      "outputs": [],
      "stateMutability": "nonpayable",
      "type": "function"
    },
    {
      "inputs": [],
      "name": "pickWinner",
      "outputs": [],
      "stateMutability": "nonpayable",
      "type": "function"
    }
  ],
  "bytecode": "0x60c060405234801561001057600080fd5b506040516119d63803806119d68339818101604052604081101561003357600080fd5b810190808051906020019092919080519060200190929190505050738c7382f9d8f56b33781fe506e897a4f1e2d1725573326c977e6efc84e512bb9c30f76e30c160ed06fb8173ffffffffffffffffffffffffffffffffffffffff1660a08173ffffffffffffffffffffffffffffffffffffffff1660601b815250508073ffffffffffffffffffffffffffffffffffffffff1660808173ffffffffffffffffffffffffffffffffffffffff1660601b81525050505060006100f861024860201b60201c565b905080600160006101000a81548173ffffffffffffffffffffffffffffffffffffffff021916908373ffffffffffffffffffffffffffffffffffffffff1602179055508073ffffffffffffffffffffffffffffffffffffffff16600073ffffffffffffffffffffffffffffffffffffffff167f8be0079c531659141344cd1fd0a4f28419497f9722a3daafe3b4186f6b6457e060405160405180910390a350600160038190555060018060146101000a81548160ff021916908360028111156101bd57fe5b021790555081600460006101000a81548173ffffffffffffffffffffffffffffffffffffffff021916908373ffffffffffffffffffffffffffffffffffffffff160217905550806005819055507f6e75b569a01ef56d18cab6a8e71e6600d6ce853834d4a5748b720d06f878b3a460001b600681905550655af3107a40006007819055505050610250565b600033905090565b60805160601c60a05160601c6117536102836000398061086a5280610f315250806105455280610ef552506117536000f3fe608060405234801561001057600080fd5b50600436106100cf5760003560e01c80638da5cb5b1161008c578063e580f47b11610066578063e580f47b1461023f578063e97dcb621461025d578063f2fde38b14610267578063f71d96cb146102ab576100cf565b80638da5cb5b1461017b57806394985ddd146101af578063b4a3aba1146101e7576100cf565b80631209b1f6146100d4578063378dccc3146100f2578063475f3de1146101345780635d495aea1461013e578063715018a6146101485780638144799914610152575b600080fd5b6100dc610303565b6040518082815260200191505060405180910390f35b61011e6004803603602081101561010857600080fd5b8101908080359060200190929190505050610309565b6040518082815260200191505060405180910390f35b61013c610321565b005b610146610491565b005b6101506106bb565b005b61015a61082b565b6040518082600281111561016a57fe5b815260200191505060405180910390f35b61018361083e565b604051808273ffffffffffffffffffffffffffffffffffffffff16815260200191505060405180910390f35b6101e5600480360360408110156101c557600080fd5b810190808035906020019092919080359060200190929190505050610868565b005b610213600480360360208110156101fd57600080fd5b8101908080359060200190929190505050610937565b604051808273ffffffffffffffffffffffffffffffffffffffff16815260200191505060405180910390f35b61024761096a565b6040518082815260200191505060405180910390f35b610265610970565b005b6102a96004803603602081101561027d57600080fd5b81019080803573ffffffffffffffffffffffffffffffffffffffff169060200190929190505050610cb8565b005b6102d7600480360360208110156102c157600080fd5b8101908080359060200190929190505050610ead565b604051808273ffffffffffffffffffffffffffffffffffffffff16815260200191505060405180910390f35b60055481565b600a6020528060005260406000206000915090505481565b610329610ee9565b73ffffffffffffffffffffffffffffffffffffffff1661034761083e565b73ffffffffffffffffffffffffffffffffffffffff16146103d0576040517f08c379a00000000000000000000000000000000000000000000000000000000081526004018080602001828103825260208152602001807f4f776e61626c653a2063616c6c6572206973206e6f7420746865206f776e657281525060200191505060405180910390fd5b600160028111156103dd57fe5b600160149054906101000a900460ff1660028111156103f857fe5b1461046b576040517f08c379a000000000000000000000000000000000000000000000000000000000815260040180806020018281038252601d8152602001807f63616e27742073746172742061206e6577206c6f74746572792079657400000081525060200191505060405180910390fd5b6000600160146101000a81548160ff0219169083600281111561048a57fe5b0217905550565b610499610ee9565b73ffffffffffffffffffffffffffffffffffffffff166104b761083e565b73ffffffffffffffffffffffffffffffffffffffff1614610540576040517f08c379a00000000000000000000000000000000000000000000000000000000081526004018080602001828103825260208152602001807f4f776e61626c653a2063616c6c6572206973206e6f7420746865206f776e657281525060200191505060405180910390fd5b6007547f000000000000000000000000000000000000000000000000000000000000000073ffffffffffffffffffffffffffffffffffffffff166370a08231306040518263ffffffff1660e01b8152600401808273ffffffffffffffffffffffffffffffffffffffff16815260200191505060206040518083038186803b1580156105ca57600080fd5b505afa1580156105de573d6000803e3d6000fd5b505050506040513d60208110156105f457600080fd5b8101908080519060200190929190505050101561065c576040517f08c379a000000000000000000000000000000000000000000000000000000000815260040180806020018281038252602b8152602001806116f3602b913960400191505060405180910390fd5b6002600160146101000a81548160ff0219169083600281111561067b57fe5b02179055506000610690600654600754610ef1565b9050600354600860008381526020019081526020016000208190555060016003540160038190555050565b6106c3610ee9565b73ffffffffffffffffffffffffffffffffffffffff166106e161083e565b73ffffffffffffffffffffffffffffffffffffffff161461076a576040517f08c379a00000000000000000000000000000000000000000000000000000000081526004018080602001828103825260208152602001807f4f776e61626c653a2063616c6c6572206973206e6f7420746865206f776e657281525060200191505060405180910390fd5b600073ffffffffffffffffffffffffffffffffffffffff16600160009054906101000a900473ffffffffffffffffffffffffffffffffffffffff1673ffffffffffffffffffffffffffffffffffffffff167f8be0079c531659141344cd1fd0a4f28419497f9722a3daafe3b4186f6b6457e060405160405180910390a36000600160006101000a81548173ffffffffffffffffffffffffffffffffffffffff021916908373ffffffffffffffffffffffffffffffffffffffff160217905550565b600160149054906101000a900460ff1681565b6000600160009054906101000a900473ffffffffffffffffffffffffffffffffffffffff16905090565b7f000000000000000000000000000000000000000000000000000000000000000073ffffffffffffffffffffffffffffffffffffffff163373ffffffffffffffffffffffffffffffffffffffff1614610929576040517f08c379a000000000000000000000000000000000000000000000000000000000815260040180806020018281038252601f8152602001807f4f6e6c7920565246436f6f7264696e61746f722063616e2066756c66696c6c0081525060200191505060405180910390fd5b61093382826110e7565b5050565b60096020528060005260406000206000915054906101000a900473ffffffffffffffffffffffffffffffffffffffff1681565b60035481565b6000600281111561097d57fe5b600160149054906101000a900460ff16600281111561099857fe5b14610a0b576040517f08c379a00000000000000000000000000000000000000000000000000000000081526004018080602001828103825260168152602001807f6c6f7474657279207374617465206e6f74206f70656e0000000000000000000081525060200191505060405180910390fd5b600554600460009054906101000a900473ffffffffffffffffffffffffffffffffffffffff1673ffffffffffffffffffffffffffffffffffffffff1663dd62ed3e33306040518363ffffffff1660e01b8152600401808373ffffffffffffffffffffffffffffffffffffffff1681526020018273ffffffffffffffffffffffffffffffffffffffff1681526020019250505060206040518083038186803b158015610ab557600080fd5b505afa158015610ac9573d6000803e3d6000fd5b505050506040513d6020811015610adf57600080fd5b81019080805190602001909291905050501015610b64576040517f08c379a00000000000000000000000000000000000000000000000000000000081526004018080602001828103825260148152602001807f6e6f7420616c6c6f77616365206b6974636f696e00000000000000000000000081525060200191505060405180910390fd5b600460009054906101000a900473ffffffffffffffffffffffffffffffffffffffff1673ffffffffffffffffffffffffffffffffffffffff166323b872dd33306005546040518463ffffffff1660e01b8152600401808473ffffffffffffffffffffffffffffffffffffffff1681526020018373ffffffffffffffffffffffffffffffffffffffff1681526020018281526020019350505050602060405180830381600087803b158015610c1757600080fd5b505af1158015610c2b573d6000803e3d6000fd5b505050506040513d6020811015610c4157600080fd5b8101908080519060200190929190505050506002339080600181540180825580915050600190039060005260206000200160009091909190916101000a81548173ffffffffffffffffffffffffffffffffffffffff021916908373ffffffffffffffffffffffffffffffffffffffff160217905550565b610cc0610ee9565b73ffffffffffffffffffffffffffffffffffffffff16610cde61083e565b73ffffffffffffffffffffffffffffffffffffffff1614610d67576040517f08c379a00000000000000000000000000000000000000000000000000000000081526004018080602001828103825260208152602001807f4f776e61626c653a2063616c6c6572206973206e6f7420746865206f776e657281525060200191505060405180910390fd5b600073ffffffffffffffffffffffffffffffffffffffff168173ffffffffffffffffffffffffffffffffffffffff161415610ded576040517f08c379a00000000000000000000000000000000000000000000000000000000081526004018080602001828103825260268152602001806116cd6026913960400191505060405180910390fd5b8073ffffffffffffffffffffffffffffffffffffffff16600160009054906101000a900473ffffffffffffffffffffffffffffffffffffffff1673ffffffffffffffffffffffffffffffffffffffff167f8be0079c531659141344cd1fd0a4f28419497f9722a3daafe3b4186f6b6457e060405160405180910390a380600160006101000a81548173ffffffffffffffffffffffffffffffffffffffff021916908373ffffffffffffffffffffffffffffffffffffffff16021790555050565b60028181548110610eba57fe5b906000526020600020016000915054906101000a900473ffffffffffffffffffffffffffffffffffffffff1681565b600033905090565b60007f000000000000000000000000000000000000000000000000000000000000000073ffffffffffffffffffffffffffffffffffffffff16634000aea07f00000000000000000000000000000000000000000000000000000000000000008486600060405160200180838152602001828152602001925050506040516020818303038152906040526040518463ffffffff1660e01b8152600401808473ffffffffffffffffffffffffffffffffffffffff16815260200183815260200180602001828103825283818151815260200191508051906020019080838360005b83811015610feb578082015181840152602081019050610fd0565b50505050905090810190601f1680156110185780820380516001836020036101000a031916815260200191505b50945050505050602060405180830381600087803b15801561103957600080fd5b505af115801561104d573d6000803e3d6000fd5b505050506040513d602081101561106357600080fd5b810190808051906020019092919050505050600061109684600030600080898152602001908152602001600020546114e2565b90506110be60016000808781526020019081526020016000205461154690919063ffffffff16565b600080868152602001908152602001600020819055506110de84826115ce565b91505092915050565b6002808111156110f357fe5b600160149054906101000a900460ff16600281111561110e57fe5b14611181576040517f08c379a000000000000000000000000000000000000000000000000000000000815260040180806020018281038252601d8152602001807f596f75206172656e27742061742074686174207374616765207965742100000081525060200191505060405180910390fd5b600081116111f7576040517f08c379a00000000000000000000000000000000000000000000000000000000081526004018080602001828103825260108152602001807f72616e646f6d2d6e6f742d666f756e640000000000000000000000000000000081525060200191505060405180910390fd5b6000600860008481526020019081526020016000205490506000600280549050838161121f57fe5b06905082600a60008481526020019081526020016000208190555060006002828154811061124957fe5b9060005260206000200160009054906101000a900473ffffffffffffffffffffffffffffffffffffffff169050600460009054906101000a900473ffffffffffffffffffffffffffffffffffffffff1673ffffffffffffffffffffffffffffffffffffffff1663a9059cbb82600460009054906101000a900473ffffffffffffffffffffffffffffffffffffffff1673ffffffffffffffffffffffffffffffffffffffff166370a08231306040518263ffffffff1660e01b8152600401808273ffffffffffffffffffffffffffffffffffffffff16815260200191505060206040518083038186803b15801561133e57600080fd5b505afa158015611352573d6000803e3d6000fd5b505050506040513d602081101561136857600080fd5b81019080805190602001909291905050506040518363ffffffff1660e01b8152600401808373ffffffffffffffffffffffffffffffffffffffff16815260200182815260200192505050602060405180830381600087803b1580156113cc57600080fd5b505af11580156113e0573d6000803e3d6000fd5b505050506040513d60208110156113f657600080fd5b810190808051906020019092919050505050806009600085815260200190815260200160002060006101000a81548173ffffffffffffffffffffffffffffffffffffffff021916908373ffffffffffffffffffffffffffffffffffffffff160217905550600067ffffffffffffffff8111801561147257600080fd5b506040519080825280602002602001820160405280156114a15781602001602082028036833780820191505090505b50600290805190602001906114b7929190611607565b5060018060146101000a81548160ff021916908360028111156114d657fe5b02179055505050505050565b600084848484604051602001808581526020018481526020018373ffffffffffffffffffffffffffffffffffffffff1681526020018281526020019450505050506040516020818303038152906040528051906020012060001c9050949350505050565b6000808284019050838110156115c4576040517f08c379a000000000000000000000000000000000000000000000000000000000815260040180806020018281038252601b8152602001807f536166654d6174683a206164646974696f6e206f766572666c6f77000000000081525060200191505060405180910390fd5b8091505092915050565b60008282604051602001808381526020018281526020019250505060405160208183030381529060405280519060200120905092915050565b828054828255906000526020600020908101928215611680579160200282015b8281111561167f5782518260006101000a81548173ffffffffffffffffffffffffffffffffffffffff021916908373ffffffffffffffffffffffffffffffffffffffff16021790555091602001919060010190611627565b5b50905061168d9190611691565b5090565b5b808211156116c857600081816101000a81549073ffffffffffffffffffffffffffffffffffffffff021916905550600101611692565b509056fe4f776e61626c653a206e6577206f776e657220697320746865207a65726f20616464726573734e6f7420656e6f756768204c494e4b202d2066696c6c20636f6e7472616374207769746820666175636574a264697066735822122021b33d2bb2fc4b21c1c625eb69f7d60e8238c869ac9beaadd39f03894f17044764736f6c634300060c0033",
  "immutableReferences": {
    "77": [
      {
        "length": 32,
        "start": 1349
      },
      {
        "length": 32,
        "start": 3829
      }
    ],
    "79": [
      {
        "length": 32,
        "start": 2154
      },
      {
        "length": 32,
        "start": 3889
      }
    ]
  },
  "source": "// SPDX-License-Identifier: MIT\npragma solidity 0.6.12;\n\nimport \"@openzeppelin/contracts/access/Ownable.sol\";\nimport \"@openzeppelin/contracts/token/ERC20/IERC20.sol\";\nimport \"@chainlink/contracts/src/v0.6/VRFConsumerBase.sol\";\n\ncontract Lottery is VRFConsumerBase, Ownable {\n    enum LOTTERY_STATE {\n        OPEN,\n        CLOSED,\n        CALCULATING_WINNER\n    }\n    LOTTERY_STATE public lottery_state;\n    address[] public players;\n    uint256 public lotteryId;\n    IERC20 internal iKitcoin;\n\n    uint256 public ticketPrice;\n\n    bytes32 internal keyHash;\n    uint256 internal fee;\n\n    mapping(bytes32 => uint256) internal mapRequestIdToLotteryId;\n    mapping(uint256 => address) public mapLotteryIdToWinningAddress;\n    mapping(uint256 => uint256) public mapLotteryIdToRandomNumber;\n\n    constructor(address _kitCoinAddr, uint256 _ticketPrice)\n        public\n        VRFConsumerBase(\n            0x8C7382F9D8f56b33781fE506E897a4F1e2d17255, // VRF Coordinator\n            0x326C977E6efc84E512bB9C30f76E30c160eD06FB // LINK Token\n        )\n    {\n        lotteryId = 1;\n        lottery_state = LOTTERY_STATE.CLOSED;\n        iKitcoin = IERC20(_kitCoinAddr);\n        ticketPrice = _ticketPrice;\n\n        keyHash = 0x6e75b569a01ef56d18cab6a8e71e6600d6ce853834d4a5748b720d06f878b3a4;\n        fee = 0.0001 * 10**18; // 0.1 LINK (Varies by network)\n    }\n\n    function start_new_lottery() public onlyOwner {\n        require(\n            lottery_state == LOTTERY_STATE.CLOSED,\n            \"can't start a new lottery yet\"\n        );\n        lottery_state = LOTTERY_STATE.OPEN;\n    }\n\n    function enter() public {\n        require(lottery_state == LOTTERY_STATE.OPEN, \"lottery state not open\");\n        require(\n            iKitcoin.allowance(msg.sender, address(this)) >= ticketPrice,\n            \"not allowace kitcoin\"\n        );\n\n        iKitcoin.transferFrom(msg.sender, address(this), ticketPrice);\n        players.push(msg.sender);\n    }\n\n    /**\n     * Requests randomness\n     */\n    function pickWinner() public onlyOwner {\n        require(\n            LINK.balanceOf(address(this)) >= fee,\n            \"Not enough LINK - fill contract with faucet\"\n        );\n        lottery_state = LOTTERY_STATE.CALCULATING_WINNER;\n        bytes32 requestId = requestRandomness(keyHash, fee);\n        mapRequestIdToLotteryId[requestId] = lotteryId;\n        lotteryId = lotteryId + 1;\n    }\n\n    /**\n     * Callback function used by VRF Coordinator\n     */\n    function fulfillRandomness(bytes32 requestId, uint256 randomness)\n        internal\n        override\n    {\n        require(\n            lottery_state == LOTTERY_STATE.CALCULATING_WINNER,\n            \"You aren't at that stage yet!\"\n        );\n        require(randomness > 0, \"random-not-found\");\n        uint256 lid = mapRequestIdToLotteryId[requestId];\n\n        uint256 index = randomness % players.length;\n\n        mapLotteryIdToRandomNumber[lid] = randomness;\n        address winningAddr = players[index];\n        iKitcoin.transfer(winningAddr, iKitcoin.balanceOf(address(this)));\n        mapLotteryIdToWinningAddress[lid] = winningAddr;\n        players = new address[](0);\n        lottery_state = LOTTERY_STATE.CLOSED;\n    }\n}\n",
  "sourcePath": "/Users/kitchittawanij/workspace/kn-blockchain/contracts/Lottery.sol",
  "compiler": {
    "name": "solc",
    "version": "0.6.12+commit.27d51765.Emscripten.clang"
  },
  "schemaVersion": "3.4.1",
  "updatedAt": "2021-09-02T17:14:14.886Z",
  "networkType": "ethereum",
  "devdoc": {
    "kind": "dev",
    "methods": {
      "owner()": {
        "details": "Returns the address of the current owner."
      },
      "renounceOwnership()": {
        "details": "Leaves the contract without owner. It will not be possible to call `onlyOwner` functions anymore. Can only be called by the current owner. NOTE: Renouncing ownership will leave the contract without an owner, thereby removing any functionality that is only available to the owner."
      },
      "transferOwnership(address)": {
        "details": "Transfers ownership of the contract to a new account (`newOwner`). Can only be called by the current owner."
      }
    },
    "version": 1
  },
  "userdoc": {
    "kind": "user",
    "methods": {
      "pickWinner()": {
        "notice": "Requests randomness"
      }
    },
    "version": 1
  }
}